:100000000C943A000C9457000C9457000C94570031
:100010000C9457000C9459000C9457000C94570002
:100020000C9457000C94A9000C9457000C94710088
:100030000C9457000C9457000C9445010C94480103
:100040000C9457000C9457000C9457000C945700D4
:100050000C9457000C944B010C9457000C945700CF
:100060000C9457000C9457003F065B4F666D7D075C
:100070007F6F394011241FBECFEFD8E0DEBFCDBF68
:1000800011E0A0E0B1E0ECE5F9E002C005900D92CE
:10009000A630B107D9F721E0A6E0B1E001C01D927A
:1000A000A531B207E1F70E9498030C94AC040C94BC
:1000B00000008F938FB78F93EF93FF9389B1809553
:1000C0008C7F8093080185E080930901EFE6F0E0E2
:1000D000808182608083FF91EF918F918FBF8F919C
:1000E00018951F921FB61F9211248F939F93809192
:1000F0000901882389F080910901815080930901C9
:1001000089B180958C7F90910801981759F095E0FE
:1001100090930901809308019F918F911F901FBEBA
:100120001F901895809109018111F6CF81E080938D
:100130000B018091080180930A0180910A0180954A
:1001400080788093110180916F008D7F80936F0084
:10015000E3CF1F920F920FB60F9211242F933F936C
:100160004F935F936F937F938F939F93AF93BF93BF
:10017000EF93FF93809114018F5F8093140180911E
:1001800014018C3309F049C01092140180911301BD
:100190008F5F80931301809113018C3359F5109276
:1001A0001301809112018F5F8093120180911201DF
:1001B000883101F51092120180910D018F5F8093BB
:1001C0000D0160910D01673059F410920D0180917D
:1001D0000C01209114010E947604920F9093140157
:1001E00080910C012091140167E00E947604820F37
:1001F000809314019091120180910E01981336C0E2
:100200009091130180910F01981330C081E0809389
:1002100010018EE887BD87E488BD80911001882396
:1002200051F080911101882321F08091140180FD0B
:1002300026C00E948F03809164008E7F80936400AB
:1002400080917A00806480937A00FF91EF91BF9152
:10025000AF919F918F917F916F915F914F913F915E
:100260002F910F900FBE0F901F9018958091100145
:10027000882399F2109210010E948F03CECF8091B3
:100280006E00866080936E00D6CF419A4298189592
:10029000429A419818951F921FB61F9211248F936E
:1002A0009F9380910201882311F1809179009091B0
:1002B0000101805A8095890F9927991F95958795F7
:1002C0008093010180910701811106C080E680932F
:1002D0007C00109202012D9A8091640081608093CD
:1002E00064009F918F911F901FBE1F901895809161
:1002F0007900829586958770909100018E5F883095
:1003000008F087E0890F809300018091000190E060
:1003100095958795809300018EE680937C0081E01F
:10032000809302012D98D8CF109207010895439A27
:1003300081E080930701E8E6F0E0808184608083BB
:100340006091060181E00E942203089582E080937B
:1003500007014398E8E6F0E080818B7F8083089571
:10036000259A87B18E6087B98BB18C6F8BB98091DC
:100370006D008C6F80936D00809168008460809325
:100380006800439A80917E00816080937E00809116
:100390007A008C6880937A008EE680937C0080914E
:1003A000B60080628093B6001092B20085E0809320
:1003B000B1008091B6008571E1F7109280008CE069
:1003C0008093810080E290E0909389008093880080
:1003D00082E084BD85BD8EE887BD8091700081601C
:1003E00080937000809164008768809364007894A3
:1003F00008950F931F93CF93DF9330911201809153
:1004000012012AE0622F0E946A04092FCAE03A30E2
:1004100020F0832F0E946A04C82F10911301D091FD
:100420001301809106010E942B03809114018170B9
:100430000E9475036C2F80E00E944D03602F81E0C5
:100440000E944D03CAE0812F6C2F0E946A04682F1E
:1004500082E00E944D038D2F6C2F0E946A04692F49
:1004600083E00E944D03DF91CF911F910F9108957A
:100470000F931F93CF93DF9330910E0180910E0164
:100480002AE0622F0E946A04092FCAE03A3020F065
:10049000832F0E946A04C82F10910F01D0910F0181
:1004A000809106010E942B038091140181700E94AB
:1004B00075036C2F80E00E944D03602F81E00E9445
:1004C0004D03CAE0812F6C2F0E946A04682F82E0DE
:1004D0000E944D038D2F6C2F0E946A04692F83E0C8
:1004E0000E944D03DF91CF911F910F9108951F93AB
:1004F000CF93DF9380910C01C0910C01C7FD8195D2
:100500006AE00E946A04182FD92F809106010E9488
:100510002B0380E00E9475036AE080E00E94610383
:100520006BE0C7FF6CE081E00E946103612F82E015
:100530000E944D036D2F83E00E944D03DF91CF9108
:100540001F91089590911001992321F09091140129
:1005500090FD06C0803429F0803631F00E94F90108
:1005600008950E94380208950E94770208950000BD
:10057000000000000000000008950F931F93CF9328
:10058000DF93C82FD8E045980E94B7020C2F10E0E7
:10059000C0FF25C0449A459A0E94B7021595079559
:1005A000C02FD15081F745983C98449A0E94B702D9
:1005B00086B1C82FC07184FF03C03C9A4498C1E043
:1005C0000E94B702459A0E94B70245980E94B7025E
:1005D0003C9A8C2FDF91CF911F910F9108954498F1
:1005E000DACF87B1806387B908950E94F102449AF7
:1005F000459A0E94B7024498089587B18F7C87B9C5
:10060000089545980E94B70244980E94B702459AFF
:100610000E94B702449A0E94FD020895CF93C0E061
:100620008111C8E0683008F067E0C62BC093040170
:100630000E94F5028C2F80680E94BD020E94010377
:10064000CF9108950E940E03089560910401677090
:100650000E940E030895682F6770809104018870CE
:100660000E940E030895CF93DF93C82FD62F0E94C8
:10067000F50284E40E94BD020E9401030E94F5027B
:100680008C2F8370806C0E94BD028D2F0E94BD0252
:100690000E940103DF91CF9108956A3080F4E62F24
:1006A000F0E0E859FF4F6491813031F490910301FB
:1006B0009078692B609303010E943303089560E0F2
:1006C000F3CF6C3080F4E62FF0E0E859FF4F6491EF
:1006D000813031F4909103019078692B609303018C
:1006E0000E943303089560E0F3CF909103018823C3
:1006F00049F09068909303016091030181E00E94AA
:10070000330308959F77F6CFCF93C0E060E08C2F3E
:100710000E943303CF5FC430C9F7CF910895EEE64E
:10072000F0E08081897F808388B1897F88B90895CE
:100730000E94B00167E081E00E94220381E00E94F4
:100740002503E9B0DE2DD095DC7FC0E085E0D82E12
:1007500098E1E92EF12C0CE310E022E0C22ED092B9
:10076000B10080910B018823E9F110920B01809177
:100770000A018D27D0910A01CD2FC077C03409F42A
:100780004BC058F4C031D1F0C03241F19D2F9C7064
:100790009C3009F470C0C0E025C0C036B9F78D2385
:1007A00082FD5EC083FF1EC080910C018E39D4F0A3
:1007B00080910C01815080930C0114C0282F2D23AF
:1007C00022FD3AC023FF0EC08091120190E00196F5
:1007D000B7010E9484048093120104C0109210019A
:1007E0000E948F0380910701813009F44CC0823050
:1007F00009F466C081116BC08091000180930601ED
:1008000080910101873520F4C09206010E94970172
:100810008C2F0E94A2023DC0282F2D2322FD16C03E
:1008200023FFE0CF80910E0190E00196B7010E9476
:10083000840480930E01D6CF8091130190E001963D
:10084000B8010E94840480931301BCCF80910F01F2
:1008500090E00196B8010E94840480930F01E0CFDC
:1008600090910C0193360CF09DCF90910C019F5FFD
:1008700090930C0197CF8D23C82FCC7009F4B2CF81
:100880001092140188CF80910101833588F40E9471
:10089000A6018091B6008571E1F783B7817F83BFA0
:1008A00083B7816083BF889583B78E7F83BF57CF1F
:1008B00080910101883508F4ABCF10920701A8CFD1
:1008C00080910101843528F30E949701E2CF1092B4
:1008D0000701DFCF991B79E004C0991F961708F034
:1008E000961B881F7A95C9F78095089587FB082E77
:1008F000062687FD819567FD61950E946A040EF4C6
:10090000919507FC8195089597FB072E16F40094A6
:1009100007D077FD09D00E94980407FC05D03EF46B
:10092000909581959F4F0895709561957F4F08959B
:10093000AA1BBB1B51E107C0AA1FBB1FA617B70705
:1009400010F0A61BB70B881F991F5A95A9F7809521
:0C0950009095BC01CD010895F894FFCFF4
:06095C00075C01FF0F0023
:00000001FF
