:100000000C9439000C9456000C9456000C94560035
:100010000C9456000C9458000C9456000C94560006
:100020000C9456000C94A9000C9456000C94750086
:100030000C9456000C9456000C9456000C945600E8
:100040000C9456000C9456000C9456000C945600D8
:100050000C9456000C9406010C9456000C94560017
:100060000C9456000C9456003F065B4F666D7D075E
:100070007F6F11241FBECFEFD8E0DEBFCDBF11E0F0
:10008000A0E0B1E0E8E7F7E002C005900D92A630ED
:10009000B107D9F721E0A6E0B1E001C01D92A0317F
:1000A000B207E1F70E94B8020C94BA030C94000066
:1000B0001F920F920FB60F9211248F93EF93FF931D
:1000C00089B180958C7F8093080185E08093090138
:1000D000EFE6F0E0808182608083FF91EF918F9165
:1000E0000F900FBE0F901F9018951F920F920FB692
:1000F0000F9211248F939F9380910901882311F10E
:100100008091090181508093090189B180958C7F8C
:1001100090910801981731F095E090930901809330
:10012000080110C08091090181110CC081E0809309
:100130000B018091080180930A0180916F008D7FEF
:1001400080936F009F918F910F900FBE0F901F9023
:1001500018951F920F920FB60F9211242F936F9341
:100160007F938F939F9380910F018F5F80930F01F7
:1001700080910F018C33B1F510920F0180910E0127
:100180008F5F80930E0180910E018C3359F5109290
:100190000E0180910D018F5F80930D0180910D0103
:1001A000883101F510920D0180910C018F5F8093D1
:1001B0000C0160910C01673059F410920C01809190
:1001C000030120910F010E944D03290F20930F017D
:1001D0008091030120910F0167E00E944D03280FD9
:1001E00020930F01809164008E7F80936400809142
:1001F0007A00806480937A009F918F917F916F91B4
:100200002F910F900FBE0F901F9018951F920F9275
:100210000FB60F9211242F938F939F938091020119
:100220008823C1F08091790020910101805A809546
:1002300090E0820F911D95958795809301018091A3
:100240000701811121C080E680937C001092020199
:100250002D9A1AC080917900829586958770909129
:1002600000018E5F883008F087E0890F80930001DD
:10027000809100018695809300018EE680937C003A
:1002800081E0809302012D988091640081608093C9
:1002900064009F918F912F910F900FBE0F901F9030
:1002A0001895109207010895439A81E08093070101
:1002B000E8E6F0E08081846080836091060181E05F
:1002C0000E945902089582E0809307014398E8E66E
:1002D000F0E080818B7F80830895259A3B9A8BB1D3
:1002E0008C6F8BB980916D008C6F80936D008091C5
:1002F0006800846080936800439A80917E008160EA
:1003000080937E0080917A008C6880937A008EE6DC
:1003100080937C008091B60080628093B60010923A
:10032000B20085E08093B1008091B6008571E1F75D
:10033000109280008CE08093810080E290E09093A6
:1003400089008093880080917000816080937000A4
:100350008091640087688093640078940895A1E098
:10036000B0E0E5EBF1E00C947C0380910D012AE014
:10037000622F0E944103082F80910D010E944103CA
:10038000011101C00AE010910E01F0900E01809160
:10039000060199830E94620280910F0181700E9480
:1003A0009E02602F80E00E948A029981692F81E07D
:1003B0000E948A020AE0812F602F0E944103682F69
:1003C00082E00E948A028F2D602F0E944103692FD4
:1003D00083E00E948A022196E5E00C9498030000D5
:1003E00000000000000000000895A1E0B0E0EBEF85
:1003F000F1E00C947D03082F18E045980E94EF016E
:1004000000FF02C0449A01C04498459A0E94EF013F
:100410000695115091F745983C98449A0E94EF0137
:1004200081E0349902C080E002C03C9A44988983FC
:100430000E94EF01459A0E94EF0145980E94EF014A
:100440003C9A89812196E4E00C94990387B18063FA
:1004500087B908950E942602449A459A0E94EF01A6
:100460004498089587B18F7C87B9089545980E9474
:10047000EF0144980E94EF01459A0E94EF01449ACF
:100480000E9432020895CF93811102C0C0E001C0E2
:10049000C8E0683008F067E0C62BC09305010E94F1
:1004A0002A028C2F80680E94F5010E943602CF91AB
:1004B00008950E94430208956091050167700E94AB
:1004C00043020895682F67708091050188700E942B
:1004D00043020895A1E0B0E0E0E7F2E00C947E036F
:1004E000182F69830E942A0284E40E94F5010E9469
:1004F00036020E942A02812F8370806C0E94F501CF
:100500006981862F0E94F5010E9436022196E3E060
:100510000C949A036A3030F4E62FF0E0E859FF4F6C
:10052000649101C060E0813031F4909104019078D1
:10053000692B609304010E946A020895909104015E
:10054000882311F0906801C09F7790930401609117
:10055000040181E00E946A020895CF93C0E060E048
:100560008C2F0E946A02CF5FC430C9F7CF910895E3
:10057000A0E0B0E0EEEBF2E00C947A030E946D0193
:1005800067E081E00E94590281E00E945C02C9B1EB
:10059000C095CC7FD5E082E0D82E08E110E09CE346
:1005A000E92EF12CD093B10080910B01882361F1E9
:1005B00010920B0180910A018C27C0910A019C2F97
:1005C0009C709C3031F48C7009F44CC010920F0177
:1005D00049C0C4FF47C08C2382FF0AC080910E012E
:1005E00090E00196B7010E945B0380930E013AC030
:1005F00083FF38C080910D0190E00196B8010E9400
:100600005B0380930D012EC080910701813089F03A
:1006100018F08230F1F024C080910001809306012F
:1006200080910101873590F4D09206010E94540117
:100630000DC080910101833518F40E94630112C03E
:1006400080910101883510F0109207010E94AF01DE
:1006500009C080910101843528F00E94540102C034
:10066000109207018091B6008571E1F783B7817F11
:1006700083BF83B7816083BF889583B78E7F83BF35
:1006800091CF991B79E004C0991F961708F0961B2B
:10069000881F7A95C9F78095089587FB082E06264E
:1006A00087FD819567FD61950E9441030EF4919548
:1006B00007FC8195089597FB072E16F4009407D048
:1006C00077FD09D00E94A60307FC05D03EF4909563
:1006D00081959F4F0895709561957F4F08952F9252
:1006E0003F924F925F926F927F928F929F92AF92C2
:1006F000BF92CF92DF92EF92FF920F931F93CF930F
:10070000DF93CDB7DEB7CA1BDB0B0FB6F894DEBFA5
:100710000FBECDBF09942A88398848885F846E84CB
:100720007D848C849B84AA84B984C884DF80EE8015
:10073000FD800C811B81AA81B981CE0FD11D0FB61E
:10074000F894DEBF0FBECDBFED010895AA1BBB1B01
:1007500051E107C0AA1FBB1FA617B70710F0A61BC1
:10076000B70B881F991F5A95A9F780959095BC01E2
:08077000CD010895F894FFCFBC
:06077800075C0113FF0FF6
:00000001FF
